{
  "_format": "hh-sol-artifact-1",
  "contractName": "Multipayment",
  "sourceName": "contracts/Multipayment.sol",
  "abi": [
    {
      "inputs": [
        {
          "internalType": "address payable[]",
          "name": "recipients",
          "type": "address[]"
        },
        {
          "internalType": "uint256[]",
          "name": "amounts",
          "type": "uint256[]"
        }
      ],
      "name": "send",
      "outputs": [],
      "stateMutability": "payable",
      "type": "function"
    }
  ],
  "bytecode": "0x608060405234801561001057600080fd5b50610521806100206000396000f3fe60806040526004361061001e5760003560e01c8063a645ff5f14610023575b600080fd5b61003d6004803603810190610038919061025b565b61003f565b005b818190508484905014610087576040517f08c379a000000000000000000000000000000000000000000000000000000000815260040161007e9061035f565b60405180910390fd5b60005b8484905081101561018f5760008585838181106100aa576100a961037f565b5b90506020020160208101906100bf919061040c565b73ffffffffffffffffffffffffffffffffffffffff168484848181106100e8576100e761037f565b5b905060200201356040516100fb9061046a565b60006040518083038185875af1925050503d8060008114610138576040519150601f19603f3d011682016040523d82523d6000602084013e61013d565b606091505b5050905080610181576040517f08c379a0000000000000000000000000000000000000000000000000000000008152600401610178906104cb565b60405180910390fd5b50808060010191505061008a565b5050505050565b600080fd5b600080fd5b600080fd5b600080fd5b600080fd5b60008083601f8401126101c5576101c46101a0565b5b8235905067ffffffffffffffff8111156101e2576101e16101a5565b5b6020830191508360208202830111156101fe576101fd6101aa565b5b9250929050565b60008083601f84011261021b5761021a6101a0565b5b8235905067ffffffffffffffff811115610238576102376101a5565b5b602083019150836020820283011115610254576102536101aa565b5b9250929050565b6000806000806040858703121561027557610274610196565b5b600085013567ffffffffffffffff8111156102935761029261019b565b5b61029f878288016101af565b9450945050602085013567ffffffffffffffff8111156102c2576102c161019b565b5b6102ce87828801610205565b925092505092959194509250565b600082825260208201905092915050565b7f526563697069656e747320616e6420616d6f756e7473206d757374206861766560008201527f207468652073616d65206c656e67746800000000000000000000000000000000602082015250565b60006103496030836102dc565b9150610354826102ed565b604082019050919050565b600060208201905081810360008301526103788161033c565b9050919050565b7f4e487b7100000000000000000000000000000000000000000000000000000000600052603260045260246000fd5b600073ffffffffffffffffffffffffffffffffffffffff82169050919050565b60006103d9826103ae565b9050919050565b6103e9816103ce565b81146103f457600080fd5b50565b600081359050610406816103e0565b92915050565b60006020828403121561042257610421610196565b5b6000610430848285016103f7565b91505092915050565b600081905092915050565b50565b6000610454600083610439565b915061045f82610444565b600082019050919050565b600061047582610447565b9150819050919050565b7f5472616e73666572206661696c65642e00000000000000000000000000000000600082015250565b60006104b56010836102dc565b91506104c08261047f565b602082019050919050565b600060208201905081810360008301526104e4816104a8565b905091905056fea26469706673582212204f46faec52bb3547d0fffad2a42486c7161831dbae94b2293c1278fe3e83d71464736f6c63430008180033",
  "linkReferences": {},
  "deployedLinkReferences": {}
}